:020000040000FA
:10000000000002282430AE000130AF008030000034
:100010000000B1200000000083120000B1002F0892
:10002000B0002630B2000130B30083120000300867
:10003000B4003108B500FF30B007031CB103350828
:10004000340403199A2804303207B400B501B50D01
:100050003308B5073408AE003508AF008030000023
:100060000000B1200000000083120000B7002F083C
:10007000B6003208AE003308AF0080300000000048
:10008000B1200000000083120000B900B5002F0865
:10009000B400B80002303207B400B501B50D330822
:1000A000B5073408AE003508AF008030000000000E
:1000B000B1200000000083120000B500BB002F0833
:1000C000BA00B400831200003608BA003708BB003B
:1000D000FF30B607031CB7033B083A040319932803
:1000E0003808AE003908AF008030000000009E20C4
:1000F0000000000083120000BA00340883120313CA
:100100008400831383120000351883173A08831282
:100110000313800083120000B80A0319B90AB40A55
:100120000319B50A6228063083120000B2070318CB
:10013000B30A152800000000D2280800003A03196D
:10014000A528803A0319AC2800342E0884008313B4
:100150002F188317000808002F088A002E08820035
:100160000800003A0319B928803A0319C328AF01DF
:1001700000342E08840083132F1883170008AF0063
:10018000840A0008080000000000AC20AD00AE0F9B
:10019000AF03AF0A00000000AC20AC002D08AF0098
:1001A0002C0808008316850108308312850083120D
:1001B00005146430AF000030FD20831285146430D4
:1001C000AF000030FD20831205156430AF00003011
:1001D000FD20831205166430AF000030FD2083122D
:1001E00085166430AF000030FD2083128512643024
:1001F000AF000030FD20D7280800BD002F08BC004C
:10020000BE01BF013D083F02031D08293C083E0214
:1002100003182329FB30C0000430C100FF30400721
:10022000C200FF30C30041080318410FC307420852
:10023000C0004308C10043084204031D0E29BE0A42
:100240000319BF0A02290800013400342C34013498
:0A025000443400340134003400345B
:02400E00143F5D
:00000001FF
