:1000000014C023C022C021C02FC01FC01EC01DC0ED
:100010001CC01BC01AC019C018C017C016C015C01C
:1000200014C013C012C011C010C011241FBECFE5F0
:10003000D1E0DEBFCDBF20E0A0E6B0E001C01D9260
:10004000A436B207E1F765D0BDC0DACF1FBC88E0A7
:100050008EBD89EF90E09BBD8ABD89B7806489BF62
:100060008EB583608EBD08951F920F920FB60F92CA
:1000700011248F939F93AF93BF93809160009091D1
:100080006100A0916200B09163000196A11DB11DB5
:100090008093600090936100A0936200B09363002E
:1000A000BF91AF919F918F910F900FBE0F901F90B6
:1000B0001895CF92DF92EF92FF920F931F930091CA
:1000C0006000109161002091620030916300C09047
:1000D0006000D0906100E0906200F0906300C01A70
:1000E000D10AE20AF30AC616D706E806F90678F33B
:1000F0001F910F91FF90EF90DF90CF900895BE98E1
:10010000C69A089586B386FB882780F991E08927EF
:100110000895B89AB99ABA9ABB9A8D9A97DFEFDF89
:10012000789421E030E0C19AC39A9598C298C0981B
:100130002130310541F4E6DF8111E4DF60E177E24F
:1001400080E090E0B6DFDEDF20E030E0882359F386
:10015000C398C198C09864EF71E080E090E0A9DF97
:10016000C19AC09A64EF71E080E090E0A2DFC1988C
:10017000C09864EF71E080E090E09BDFC09A64EF8C
:1001800071E080E090E095DFC09864EF71E080E07E
:1001900090E08FDFC09A64EF71E080E090E089DF4B
:1001A000C198C098C29A959A68E97AE380E090E095
:1001B00080DFC19AC39A9598C298C098A3DF811135
:0801C000FDCFAFCFF894FFCF93
:00000001FF
