:1000000014C023C022C021C02FC01FC01EC01DC0ED
:100010001CC01BC01AC019C018C017C016C015C01C
:1000200014C013C012C011C010C011241FBECFE5F0
:10003000D1E0DEBFCDBF20E0A0E6B0E001C01D9260
:10004000A536B207E1F765D07CC0DACF1FBC88E0E7
:100050008EBD89EF90E09BBD8ABD89B7806489BF62
:100060008EB583608EBD08951F920F920FB60F92CA
:1000700011248F939F93AF93BF93809161009091D0
:100080006200A0916300B09164000196A11DB11DB2
:100090008093610090936200A0936300B09364002A
:1000A000BF91AF919F918F910F900FBE0F901F90B6
:1000B0001895CF92DF92EF92FF920F931F930091CA
:1000C0006100109162002091630030916400C09043
:1000D0006100D0906200E0906300F0906400C01A6C
:1000E000D10AE20AF30AC616D706E806F90678F33B
:1000F0001F910F91FF90EF90DF90CF900895BE98E1
:10010000C69A089586B386FB882780F991E08927EF
:100110000895B89A9BDFF3DF7894C09AC1E0D1E0EC
:10012000F1DF8111D0936000809160008823C1F3DA
:1001300088B38C2788BB68EE73E080E090E0B9DF7D
:06014000EFCFF894FFCFA1
:00000001FF
