:1000000014C01BC01AC019C018C017C016C015C034
:1000100014C013C012C011C010C00FC00EC00DC05C
:100020000CC00BC00AC009C008C011241FBECFE518
:10003000D1E0DEBFCDBF41D043C0E2CF87B3876000
:1000400087BBC29A2FE382E49FE02150804090401A
:10005000E1F700C00000C298C19A2FE78AE196E05C
:10006000215080409040E1F700C00000C198C09A44
:100070002FE382E49FE0215080409040E1F700C0F0
:100080000000C098C29A089587B3886187BBC49A5C
:100090002FE382E49FE0215080409040E1F700C0D0
:1000A0000000C498C39A2FE382E49FE0215080406F
:1000B0009040E1F700C000000895C0DFE5DFFDCF0C
:0400C000F894FFCFE2
:00000001FF
