:1000000014C023C022C021C02FC01FC01EC01DC0ED
:100010001CC01BC01AC019C018C017C016C015C01C
:1000200014C013C012C011C010C011241FBECFE5F0
:10003000D1E0DEBFCDBF10E0A0E6B0E001C01D9270
:10004000A436B107E1F76DD045C2DACF1FBC88E016
:100050008EBD89EF90E09BBD8ABD89B7806489BF62
:100060008EB583608EBD08951F920F920FB60F92CA
:1000700011248F939F93AF93BF93809160009091D1
:100080006100A0916200B09163000196A11DB11DB5
:100090008093600090936100A0936200B09363002E
:1000A000BF91AF919F918F910F900FBE0F901F90B6
:1000B0001895EF92FF920F931F937B018C01209173
:1000C0006000309161004091620050916300809126
:1000D000600090916100A0916200B0916300821B6A
:1000E000930BA40BB50B8E159F05A007B10778F3F2
:1000F0001F910F91FF90EF900895BE98C69A0895B2
:1001000086B38295869586958370809581700895D3
:10011000BF98C79A089586B38095881F8827881F3F
:100120000895B89AB99ABA9ABB9A8D9A8FDFBE98F9
:10013000C69ABF98C79A789481E090E076B366B388
:10014000C19AC39A9598C298C0980097D9F0209107
:100150006000309161004091620050916300809195
:10016000600090916100A0916200B0916300821BD9
:10017000930BA40BB50B80519742A040B04078F38D
:1001800080E090E076FF02C067FDD8CFC198C39AA7
:10019000C0982091600030916100409162005091C0
:1001A00063008091600090916100A0916200B09125
:1001B0006300821B930BA40BB50B845F9140A0409E
:1001C000B04078F3C19AC39A2091600030916100E9
:1001D00040916200509163008091600090916100B5
:1001E000A0916200B0916300821B930BA40BB50B2E
:1001F000845F9140A040B04078F3C198C098C39A02
:100200002091600030916100409162005091630044
:100210008091600090916100A0916200B0916300B4
:10022000821B930BA40BB50B845F9140A040B040A0
:1002300078F3C09AC39A2091600030916100409198
:100240006200509163008091600090916100A091E4
:100250006200B0916300821B930BA40BB50B845F0B
:100260009140A040B04078F3C098C39A20916000BC
:100270003091610040916200509163008091600074
:1002800090916100A0916200B0916300821B930B7A
:10029000A40BB50B845F9140A040B04078F3C39AA3
:1002A000C09A2091600030916100409162005091AD
:1002B00063008091600090916100A0916200B09114
:1002C0006300821B930BA40BB50B845F9140A0408D
:1002D000B04078F3C198C098959AC39A2091600075
:1002E0003091610040916200509163008091600004
:1002F00090916100A0916200B0916300821B930B0A
:10030000A40BB50B885E9340A040B04078F3C29A2E
:10031000C39820916000309161004091620050913B
:1003200063008091600090916100A0916200B091A3
:100330006300821B930BA40BB50B80519742A04026
:10034000B04078F3C298959A209160003091610096
:100350004091620050916300809160009091610033
:10036000A0916200B0916300821B930BA40BB50BAC
:10037000845F9140A040B04078F3C29A959A209152
:100380006000309161004091620050916300809163
:10039000600090916100A0916200B0916300821BA7
:1003A000930BA40BB50B845F9140A040B04078F351
:1003B000C298959A2091600030916100409162004E
:1003C000509163008091600090916100A091620063
:1003D000B0916300821B930BA40BB50B845F91401B
:1003E000A040B04078F3C29A959A20916000309175
:1003F0006100409162005091630080916000909193
:100400006100A0916200B0916300821B930BA40B6A
:10041000B50B845F9140A040B04078F3C298959AA4
:100420002091600030916100409162005091630022
:100430008091600090916100A0916200B091630092
:10044000821B930BA40BB50B845F9140A040B0407E
:1004500078F3C29A959A20916000309161004091A2
:100460006200509163008091600090916100A091C2
:100470006200B0916300821B930BA40BB50B845FE9
:100480009140A040B04078F3C298959AC39A2091C9
:100490006000309161004091620050916300809152
:1004A000600090916100A0916200B0916300821B96
:1004B000930BA40BB50B885E9340A040B04078F33B
:1004C000C19AC39A9598C298C098B69BFECFB79B25
:0804D000FCCF32CEF894FFCFFF
:00000001FF
