:1000000014C023C022C021C02FC01FC01EC01DC0ED
:100010001CC01BC01AC019C018C017C016C015C01C
:1000200014C013C012C011C010C011241FBECFE5F0
:10003000D1E0DEBFCDBF10E0A0E6B0E001C01D9270
:10004000A436B107E1F764D055C1DACF1FBC88E010
:100050008EBD89EF90E09BBD8ABD89B7806489BF62
:100060008EB583608EBD08951F920F920FB60F92CA
:1000700011248F939F93AF93BF93809160009091D1
:100080006100A0916200B09163000196A11DB11DB5
:100090008093600090936100A0936200B09363002E
:1000A000BF91AF919F918F910F900FBE0F901F90B6
:1000B0001895EF92FF920F931F937B018C01209173
:1000C0006000309161004091620050916300809126
:1000D000600090916100A0916200B0916300821B6A
:1000E000930BA40BB50B8E159F05A007B10778F3F2
:1000F0001F910F91FF90EF900895BE98C69A0895B2
:1001000086B38295869586958370809581700895D3
:10011000B89AB99ABA9ABB9A8D9A98DFBE98C69A3D
:10012000789481E090E066B3C19AC39A9598C2989A
:10013000C0980097D9F02091600030916100409103
:100140006200509163008091600090916100A091E5
:100150006200B0916300821B930BA40BB50B80511E
:100160009742A040B04078F380E090E066FDDBCF9E
:10017000C198C398C098209160003091610040916F
:100180006200509163008091600090916100A091A5
:100190006200B0916300821B930BA40BB50B845FCC
:1001A0009140A040B04078F3C19A20916000309116
:1001B00061004091620050916300809160009091D5
:1001C0006100A0916200B0916300821B930BA40BAD
:1001D000B50B845F9140A040B04078F3C198C098BF
:1001E0002091600030916100409162005091630065
:1001F0008091600090916100A0916200B0916300D5
:10020000821B930BA40BB50B845F9140A040B040C0
:1002100078F3C09A209160003091610040916200B3
:10022000509163008091600090916100A091620004
:10023000B0916300821B930BA40BB50B845F9140BC
:10024000A040B04078F3C0982091600030916100E8
:100250004091620050916300809160009091610034
:10026000A0916200B0916300821B930BA40BB50BAD
:10027000845F9140A040B04078F3C09A2091600024
:100280003091610040916200509163008091600064
:1002900090916100A0916200B0916300821B930B6A
:1002A000A40BB50B845F9140A040B04078F3C19897
:1002B000C098C29A959A2091600030916100409157
:1002C0006200509163008091600090916100A09164
:1002D0006200B0916300821B930BA40BB50B88598D
:1002E0009A43A040B04078F3C19AC39A9598C298B7
:0802F000C09817CFF894FFCF6E
:00000001FF
