:1000000014C023C022C021C02FC01FC01EC01DC0ED
:100010001CC01BC01AC019C018C017C016C015C01C
:1000200014C013C012C011C010C011241FBECFE5F0
:10003000D1E0DEBFCDBF20E0A0E6B0E001C01D9260
:10004000A436B207E1F765D0B6C0DACF1FBC88E0AE
:100050008EBD89EF90E09BBD8ABD89B7806489BF62
:100060008EB583608EBD08951F920F920FB60F92CA
:1000700011248F939F93AF93BF93809160009091D1
:100080006100A0916200B09163000196A11DB11DB5
:100090008093600090936100A0936200B09363002E
:1000A000BF91AF919F918F910F900FBE0F901F90B6
:1000B0001895CF92DF92EF92FF920F931F930091CA
:1000C0006000109161002091620030916300C09047
:1000D0006000D0906100E0906200F0906300C01A70
:1000E000D10AE20AF30AC616D706E806F90678F33B
:1000F0001F910F91FF90EF90DF90CF900895BE98E1
:10010000C69A089586B386FB882780F991E08927EF
:100110000895B89AB99ABA9ABB9A8D9A97DFEFDF89
:100120007894C1E0D0E0EEDF182FC19AC39A959879
:10013000C298C098CD2B29F060E177E280E090E092
:10014000B8DFC0E0D0E0112371F3C398C198C09824
:1001500064EF71E080E090E0ACDFC19A64EF71E0A1
:1001600080E090E0A6DFC198C09864EF71E080E085
:1001700090E09FDFC09A64EF71E080E090E099DF4B
:10018000C09864EF71E080E090E093DFC09A64EF84
:1001900071E080E090E08DDFC198C098C29A959A96
:1001A00068E97AE380E090E084DFC19AC39A959889
:0A01B000C298C098B6CFF894FFCFB4
:00000001FF
