:020000040000FA
:100000000000A62883169F01850108308312850011
:10001000B001B101B201B3013308803E803E031D3F
:1000200013280730320203180828B00A0319B10A4E
:100030003108803E803E031D1F2801303002031C22
:1000400093283108803E803E031D28280730300267
:10005000031893283003B40000308A00333034078B
:1000600003188A0A820039284828572866287528E4
:100070008428831205100511051285128514643039
:10008000AF00003076216430AF0000307621A12827
:100090008312051085100515051285126430AF0016
:1000A000003076216430AF0000307621A128831221
:1000B000051005150512851285146430AF00003057
:1000C00076216430AF0000307621A128831205101C
:1000D00085100511051685166430AF0000307621B5
:1000E0006430AF0000307621A1288312051005117D
:1000F0000516851685146430AF0000307621643013
:10010000AF0000307621A128831205108514051553
:10011000051685166430AF00003076216430AF00DC
:1001200000307621A12883120510851005110512D3
:1001300085126430AF00003076216430AF000030AB
:100140007621B20A0319B30A0C2808009D30AE00CC
:100150000130AF0080300000000055210000000099
:1001600083120000BE002F08BD009F30BF00013089
:10017000C000831200003D08C1003E08C200FF30ED
:10018000BD07031CBE034208410403193E29043085
:100190003F07C100C201C20D4008C2074108AE00BE
:1001A0004208AF0080300000000055210000000030
:1001B00083120000C4002F08C3003F08AE004008AF
:1001C000AF008030000000005521000000008312C5
:1001D0000000C600C2002F08C100C50002303F0762
:1001E000C100C201C20D4008C2074108AE0042086A
:1001F000AF00803000000000552100000000831295
:100200000000C200C8002F08C700C1008312000010
:100210004308C7004408C800FF30C307031CC403D9
:1002200048084704031937294508AE004608AF00BF
:100230008030000000004221000000008312000016
:10024000C700410883120313840083138312000044
:10025000421883174708831203138000831200009B
:10026000C50A0319C60AC10A0319C20A06290630BB
:1002700083120000BF070318C00AB928000000005D
:1002800002280800003A03194929803A0319502925
:1002900000342E08840083132F18831700080800E9
:1002A0002F088A002E0882000800003A03195D29F1
:1002B000803A03196729AF0100342E0884008313A4
:1002C0002F1883170008AF00840A000808000000F8
:1002D00000005021AD00AE0FAF03AF0A00000000D8
:1002E0005021AC002D08AF002C080800B6002F08E4
:1002F000B500B701B80136083802031D8129350859
:10030000370203189C29FB30B9000430BA00FF30D3
:100310003907BB00FF30BC003A0803183A0FBC078E
:100320003B08B9003C08BA003C083B04031D872980
:10033000B70A0319B80A7B29080001340034A53430
:0C0340000134493400340134003400342E
:02400E00143F5D
:00000001FF
